{
  "transactions": [
    {
      "hash": "0x2ada88fff325e51e53e88f1f9c87e8465f5f9667d6b41c4577060fdf3b6e599b",
      "transactionType": "CREATE",
      "contractName": "ContractB",
      "contractAddress": "0x700ea0e53f060872e790312f470ed33faa83c502",
      "function": null,
      "arguments": null,
      "transaction": {
        "from": "0x06fc2521526ed0f47f0eaa9eb6f8220534247f7e",
        "gas": "0x3677b",
        "value": "0x0",
        "input": "0x6080604052348015600f57600080fd5b506102248061001f6000396000f3fe608060405234801561001057600080fd5b50600436106100415760003560e01c806309154f5f146100465780637bfdec3b1461005b578063fe4b84df14610076575b600080fd5b6100596100543660046101ae565b610089565b005b61006460005481565b60405190815260200160405180910390f35b6100596100843660046101ae565b6100a2565b8060008082825461009a91906101c7565b909155505050565b7ff0c57e16840df040f15088dc2f81fe391c3923bec73e23a9662efc9c229c6a008054600160401b810460ff16159067ffffffffffffffff166000811580156100e85750825b905060008267ffffffffffffffff1660011480156101055750303b155b905081158015610113575080155b156101315760405163f92ee8a960e01b815260040160405180910390fd5b845467ffffffffffffffff19166001178555831561015b57845460ff60401b1916600160401b1785555b600086905583156101a657845460ff60401b19168555604051600181527fc7f505b2f371ae2175ee4913f4499e1f2633a7b5936321eed1cdaeb6115181d29060200160405180910390a15b505050505050565b6000602082840312156101c057600080fd5b5035919050565b808201808211156101e857634e487b7160e01b600052601160045260246000fd5b9291505056fea2646970667358221220da5d4008c4ac5a415d4bdbe3d40d1ba7cafd0a42d361829c4f416921430d9afa64736f6c634300081c0033",
        "nonce": "0x11",
        "chainId": "0xaa36a7"
      },
      "additionalContracts": [],
      "isFixedGasLimit": false
    },
    {
      "hash": "0xed491a33b7aa81e669875eb351ff69f8feb1d5ff11225d5561a0f38f45f002f4",
      "transactionType": "CALL",
      "contractName": null,
      "contractAddress": "0x1f4155eb97c95c5a7a496dd3d02cf76717c0e3ea",
      "function": "upgradeAndCall(address,address,bytes)",
      "arguments": [
        "0x4427Ea53315439a7f388E260BA0799902235F01f",
        "0x700Ea0E53f060872E790312F470ed33FAA83c502",
        "0x09154f5f000000000000000000000000000000000000000000000000000000000000000f"
      ],
      "transaction": {
        "from": "0x06fc2521526ed0f47f0eaa9eb6f8220534247f7e",
        "to": "0x1f4155eb97c95c5a7a496dd3d02cf76717c0e3ea",
        "gas": "0xfd63",
        "value": "0x0",
        "input": "0x9623609d0000000000000000000000004427ea53315439a7f388e260ba0799902235f01f000000000000000000000000700ea0e53f060872e790312f470ed33faa83c5020000000000000000000000000000000000000000000000000000000000000060000000000000000000000000000000000000000000000000000000000000002409154f5f000000000000000000000000000000000000000000000000000000000000000f00000000000000000000000000000000000000000000000000000000",
        "nonce": "0x12",
        "chainId": "0xaa36a7"
      },
      "additionalContracts": [],
      "isFixedGasLimit": false
    }
  ],
  "receipts": [
    {
      "status": "0x1",
      "cumulativeGasUsed": "0xe5ae1e",
      "logs": [],
      "logsBloom": "0x00000000000000000000000000000000000000000000000000000000000000000000000000000000000000000000000000000000000000000000000000000000000000000000000000000000000000000000000000000000000000000000000000000000000000000000000000000000000000000000000000000000000000000000000000000000000000000000000000000000000000000000000000000000000000000000000000000000000000000000000000000000000000000000000000000000000000000000000000000000000000000000000000000000000000000000000000000000000000000000000000000000000000000000000000000000",
      "type": "0x2",
      "transactionHash": "0x2ada88fff325e51e53e88f1f9c87e8465f5f9667d6b41c4577060fdf3b6e599b",
      "transactionIndex": "0x55",
      "blockHash": "0x346f7854b1607c51d73ac04c649c83b67503d89e6f4962b7220d27a68add039b",
      "blockNumber": "0x6bf8ef",
      "gasUsed": "0x29e85",
      "effectiveGasPrice": "0x7a6007e4",
      "from": "0x06fc2521526ed0f47f0eaa9eb6f8220534247f7e",
      "to": null,
      "contractAddress": "0x700ea0e53f060872e790312f470ed33faa83c502"
    },
    {
      "status": "0x1",
      "cumulativeGasUsed": "0x81b378",
      "logs": [
        {
          "address": "0x4427ea53315439a7f388e260ba0799902235f01f",
          "topics": [
            "0xbc7cd75a20ee27fd9adebab32041f755214dbc6bffa90cc0225b39da2e5c2d3b",
            "0x000000000000000000000000700ea0e53f060872e790312f470ed33faa83c502"
          ],
          "data": "0x",
          "blockHash": "0x935d76291be3c77ba8c813e6d973eafb6313a43fdd0b910f1c65d242915cbac9",
          "blockNumber": "0x6bf8f0",
          "transactionHash": "0xed491a33b7aa81e669875eb351ff69f8feb1d5ff11225d5561a0f38f45f002f4",
          "transactionIndex": "0x2f",
          "logIndex": "0x40",
          "removed": false
        }
      ],
      "logsBloom": "0x00000000000000000000000000000000400000000000000000001000004000000000000000000000000000000000000000000000000000000000000000000000040000000000000000000000000002000000000000000000000000000000000000000000000000000000000000100000000000000000000000000000000000000000000000000000000000000000000000000000000000000000000000000000000000000000000000000000000000000000000000000000000000000000000000000020000000000000000000000000000000800000000000000000000000000000000000000000000000000000000000000000000000000000000000008000",
      "type": "0x2",
      "transactionHash": "0xed491a33b7aa81e669875eb351ff69f8feb1d5ff11225d5561a0f38f45f002f4",
      "transactionIndex": "0x2f",
      "blockHash": "0x935d76291be3c77ba8c813e6d973eafb6313a43fdd0b910f1c65d242915cbac9",
      "blockNumber": "0x6bf8f0",
      "gasUsed": "0xad42",
      "effectiveGasPrice": "0x7a6da634",
      "from": "0x06fc2521526ed0f47f0eaa9eb6f8220534247f7e",
      "to": "0x1f4155eb97c95c5a7a496dd3d02cf76717c0e3ea",
      "contractAddress": null
    }
  ],
  "libraries": [],
  "pending": [],
  "returns": {},
  "timestamp": 1731598019,
  "chain": 11155111,
  "commit": "9626e72"
}